{"abi":[{"type":"function","name":"api_providers","inputs":[{"name":"","type":"address","internalType":"address"}],"outputs":[{"name":"api_url","type":"string","internalType":"string"},{"name":"service_description","type":"string","internalType":"string"},{"name":"online","type":"bool","internalType":"bool"},{"name":"resources_available","type":"uint256","internalType":"uint256"}],"stateMutability":"view"},{"type":"function","name":"api_providers_list","inputs":[{"name":"","type":"uint256","internalType":"uint256"}],"outputs":[{"name":"","type":"address","internalType":"address"}],"stateMutability":"view"},{"type":"function","name":"get_api_provider_data","inputs":[{"name":"api_provider","type":"address","internalType":"address"}],"outputs":[{"name":"","type":"tuple","internalType":"struct ApiProviderRegistry.ApiProviderData","components":[{"name":"api_url","type":"string","internalType":"string"},{"name":"service_description","type":"string","internalType":"string"},{"name":"online","type":"bool","internalType":"bool"},{"name":"resources_available","type":"uint256","internalType":"uint256"},{"name":"resources_taken","type":"tuple[]","internalType":"struct ApiProviderRegistry.ResourceTaken[]","components":[{"name":"api_coordinator","type":"address","internalType":"address"},{"name":"amount","type":"uint256","internalType":"uint256"}]}]}],"stateMutability":"view"},{"type":"function","name":"get_api_providers_list","inputs":[],"outputs":[{"name":"","type":"address[]","internalType":"address[]"}],"stateMutability":"view"},{"type":"function","name":"register_api","inputs":[{"name":"api_url","type":"string","internalType":"string"},{"name":"service_description","type":"string","internalType":"string"},{"name":"resources_available","type":"uint256","internalType":"uint256"}],"outputs":[],"stateMutability":"nonpayable"},{"type":"function","name":"set_online","inputs":[{"name":"online","type":"bool","internalType":"bool"}],"outputs":[],"stateMutability":"nonpayable"},{"type":"event","name":"ApiProviderOnlineStatus","inputs":[{"name":"api_provider","type":"address","indexed":true,"internalType":"address"},{"name":"online","type":"bool","indexed":false,"internalType":"bool"}],"anonymous":false}],"bytecode":{"object":"0x60808060405234601557610ace908161001b8239f35b600080fdfe608080604052600436101561001357600080fd5b60003560e01c90816307fcb50f146107ea575080635a31efec146107a857806380ba60741461035c578063cf95571f14610169578063d88748d3146100d95763fcac74f41461006157600080fd5b346100d45760203660031901126100d457600435801515908181036100d4576100a69033600052600060205260026040600020019060ff801983541691151516179055565b6040519081527f3caf3f3e2a49cc4441394134c037cfd8dada6e51ffd8fb04119cea4ce9472e3360203392a2005b600080fd5b346100d45760203660031901126100d4576004356001600160a01b038116908190036100d457600052600060205261014a6040600020610118816109f4565b90610125600182016109f4565b610158600360ff60028501541693015491604051958695608087526080870190610979565b908582036020870152610979565b911515604084015260608301520390f35b346100d45760203660031901126100d4576004356001600160a01b038116908190036100d4576060608060405161019f816108e4565b82815282602082015260006040820152600083820152015260005260006020526040600020604051906101d1826108e4565b6101da816109f4565b82526101e8600182016109f4565b6020830190815260ff60028301541691604084019215158352600460038201549160608601928352019182549267ffffffffffffffff84116103465760208460051b01936102396040519586610900565b80855260208501916000526020600020916000905b8282106102ff57610283898989896102968a60808601938452604051968796602088525160a0602089015260c0880190610979565b9051868203601f19016040880152610979565b9251151560608501525160808401525190601f198382030160a08401526020808351928381520192019060005b8181106102d1575050500390f35b825180516001600160a01b0316855260209081015181860152869550604090940193909201916001016102c3565b6040516040810181811067ffffffffffffffff82111761034657600192600292602092604052848060a01b038854168152848801548382015281520194019101909261024e565b634e487b7160e01b600052604160045260246000fd5b346100d45760603660031901126100d45760043567ffffffffffffffff81116100d45761038d903690600401610922565b60243567ffffffffffffffff81116100d4576103af6001913690600401610922565b91602090604051906103c18383610900565b600082526000936107a3575b604051906103da826108e4565b815282810194855260408101848152606082019060443582526080830193845233865285855260408620925180519067ffffffffffffffff82116106d357819061042486546109ba565b601f8111610755575b508790601f83116001146106f25789926106e7575b50508160011b916000199060031b1c19161783555b60018301965196875167ffffffffffffffff81116106d35761047982546109ba565b601f8111610690575b5086601f82116001146106255790806104d19493928a9b6004999a9b9261061a575b50508160011b916000199060031b1c19161790555b511515600284019060ff801983541691151516179055565b51600382015501905191825192600160401b84116106065781908354858555808610610597575b500191845280842084925b84841061055d5785600154600160401b8110156105495780600161052a92016001556108b3565b81546001600160a01b0360039290921b91821b19163390911b17905580f35b634e487b7160e01b82526041600452602482fd5b600283828160019451858060a01b038151166bffffffffffffffffffffffff60a01b88541617875501518486015501920193019290610503565b9091506001600160ff1b03811681036105f2576001600160ff1b03851685036105f2579082918487528287209060011b8101908660011b015b8181106105dd57506104f8565b878155600181018890558493506002016105d0565b634e487b7160e01b86526011600452602486fd5b634e487b7160e01b85526041600452602485fd5b015190508b806104a4565b82895287892099601f1983168a5b81811061067957509a60019284926104d197969560049b9c9d9e10610660575b505050811b0190556104b9565b015160001960f88460031b161c191690558b8080610653565b838301518d556001909c019b928a01928a01610633565b828952878920601f830160051c8101918984106106c9575b601f0160051c01905b8181106106be5750610482565b8981556001016106b1565b90915081906106a8565b634e487b7160e01b88526041600452602488fd5b015190508980610442565b868a52888a209250601f1984168a5b8a82821061073f575050908460019594939210610726575b505050811b018355610457565b015160001960f88460031b161c19169055898080610719565b6001859682939686015181550195019301610701565b909150858952878920601f840160051c810191898510610799575b90601f859493920160051c01905b81811061078b575061042d565b8a815584935060010161077e565b9091508190610770565b6103cd565b346100d45760203660031901126100d4576004356001548110156100d4576107d16020916108b3565b905460405160039290921b1c6001600160a01b03168152f35b346100d45760003660031901126100d4576001549081815260208101809260016000527fb10e2d527612073b26eecdfd717e6a320cf44b4afac2b0732d9fcbe2b7fa0cf69060005b8181106108945750505081610848910382610900565b6040519182916020830190602084525180915260408301919060005b818110610872575050500390f35b82516001600160a01b0316845285945060209384019390920191600101610864565b82546001600160a01b0316845260209093019260019283019201610832565b6001548110156108ce57600160005260206000200190600090565b634e487b7160e01b600052603260045260246000fd5b60a0810190811067ffffffffffffffff82111761034657604052565b90601f8019910116810190811067ffffffffffffffff82111761034657604052565b81601f820112156100d45780359067ffffffffffffffff82116103465760405192610957601f8401601f191660200185610900565b828452602083830101116100d457816000926020809301838601378301015290565b919082519283825260005b8481106109a5575050826000602080949584010152601f8019910116010190565b80602080928401015182828601015201610984565b90600182811c921680156109ea575b60208310146109d457565b634e487b7160e01b600052602260045260246000fd5b91607f16916109c9565b9060405191826000825492610a08846109ba565b8084529360018116908115610a765750600114610a2f575b50610a2d92500383610900565b565b90506000929192526020600020906000915b818310610a5a575050906020610a2d9282010138610a20565b6020919350806001915483858901015201910190918492610a41565b905060209250610a2d94915060ff191682840152151560051b82010138610a2056fea2646970667358221220163ce284eb4da95c3c2c6a5e47f4ec18a414bbc36111d4241c280c4448297a3664736f6c634300081a0033","linkReferences":{}},"methodIdentifiers":{"api_providers(address)":"d88748d3","api_providers_list(uint256)":"5a31efec","get_api_provider_data(address)":"cf95571f","get_api_providers_list()":"07fcb50f","register_api(string,string,uint256)":"80ba6074","set_online(bool)":"fcac74f4"},"id":20}